{
  "abi": [
    {
      "inputs": [
        {
          "internalType": "address",
          "name": "",
          "type": "address"
        }
      ],
      "name": "balances",
      "outputs": [
        {
          "internalType": "uint256",
          "name": "",
          "type": "uint256"
        }
      ],
      "stateMutability": "view",
      "type": "function"
    },
    {
      "inputs": [],
      "name": "deposit",
      "outputs": [],
      "stateMutability": "payable",
      "type": "function"
    },
    {
      "inputs": [
        {
          "internalType": "address",
          "name": "sender",
          "type": "address"
        }
      ],
      "name": "getBalance",
      "outputs": [
        {
          "internalType": "uint256",
          "name": "",
          "type": "uint256"
        }
      ],
      "stateMutability": "view",
      "type": "function"
    },
    {
      "inputs": [
        {
          "internalType": "address",
          "name": "recipient",
          "type": "address"
        },
        {
          "internalType": "uint256",
          "name": "amount",
          "type": "uint256"
        }
      ],
      "name": "withdrawTo",
      "outputs": [],
      "stateMutability": "nonpayable",
      "type": "function"
    }
  ],
  "bytecode": {
    "object": "0x608060405234801561001057600080fd5b50610305806100206000396000f3fe60806040526004361061003f5760003560e01c8063205c28781461004457806327e235e314610066578063d0e30db0146100a5578063f8b2cb4f146100ad575b600080fd5b34801561005057600080fd5b5061006461005f366004610241565b6100e3565b005b34801561007257600080fd5b5061009361008136600461026b565b60006020819052908152604090205481565b60405190815260200160405180910390f35b6100646101ff565b3480156100b957600080fd5b506100936100c836600461026b565b6001600160a01b031660009081526020819052604090205490565b3260009081526020819052604090205481111561013e5760405162461bcd60e51b8152602060048201526014602482015273496e73756666696369656e742062616c616e636560601b60448201526064015b60405180910390fd5b326000908152602081905260408120805483929061015d9084906102a3565b90915550506040516000906001600160a01b0384169083908381818185875af1925050503d80600081146101ad576040519150601f19603f3d011682016040523d82523d6000602084013e6101b2565b606091505b50509050806101fa5760405162461bcd60e51b81526020600482015260146024820152732330b4b632b2103a379039b2b7321022ba3432b960611b6044820152606401610135565b505050565b336000908152602081905260408120805434929061021e9084906102bc565b9091555050565b80356001600160a01b038116811461023c57600080fd5b919050565b6000806040838503121561025457600080fd5b61025d83610225565b946020939093013593505050565b60006020828403121561027d57600080fd5b61028682610225565b9392505050565b634e487b7160e01b600052601160045260246000fd5b818103818111156102b6576102b661028d565b92915050565b808201808211156102b6576102b661028d56fea2646970667358221220ee6937f108ca216b2fe154a782a242585a68f41a40ea510277634ecbc23a37f364736f6c63430008130033",
    "linkReferences": {}
  },
  "methodIdentifiers": {
    "balances(address)": "27e235e3",
    "deposit()": "d0e30db0",
    "getBalance(address)": "f8b2cb4f",
    "withdrawTo(address,uint256)": "205c2878"
  },
  "id": 1
}